:020000041000EA
:1000000000B5324B212058609868022188439860DF
:10001000D860186158612E4B002199600421596104
:100020000121F02299502B49196001219960352056
:1000300000F044F80222904214D00621196600F024
:1000400034F8196E01211966002018661A6600F04E
:100050002CF8196E196E196E052000F02FF8012189
:100060000842F9D1002199601B49196000215960AB
:100070001A491B48016001219960EB211966A021F2
:10008000196600F012F800219960164914480160C1
:100090000121996001BC002800D000471248134993
:1000A000086003C880F30888084703B5996A0420EC
:1000B0000142FBD001200142F8D103BD02B5186610
:1000C0001866FFF7F2FF186E186E02BD00000240BE
:1000D000000000180000070000035F00212200005C
:1000E000F4000018222000A00001001008ED00E03C
:1000F000000000000000000000000000070B8FD58A
:1001000000200420F7010010CB010010CD010010E9
:10011000C9010010C9010010C9010010C901001077
:10012000C9010010C9010010C9010010CF01001061
:10013000C9010010C9010010D1010010D301001045
:10014000C1010010C1010010C1010010C101001067
:10015000C1010010C1010010C1010010C101001057
:10016000C1010010C1010010C1010010C101001047
:10017000C1010010C1010010C1010010C101001037
:10018000C1010010C1010010C1010010C101001027
:10019000C1010010C1010010C1010010C101001017
:1001A000C1010010C1010010C1010010C101001007
:1001B000C1010010C1010010C1010010C1010010F7
:1001C000EFF30580103800BE00BE00BE00BE00BECA
:1001D00000BE00BEF2EB8871149B0510409B051019
:1001E0003802001090A31AE71E481F49086006C88D
:1001F00081F3088810471D480068002801D019487D
:10020000F3E70DA40ECC002902D000F012F8F9E7B4
:100210001749184A002000E001C19142FCD116495B
:100220008847164988471649884700BEFDE701C937
:1002300001C29A42FBD37047409B0510C0000020CA
:10024000CC1400204CAF0510000004200000042056
:100250004CAF051000100420001004200000000026
:10026000704700000000000008ED00E0000000D032
:10027000CC14002048340120E5FF03105103001086
:10028000DDFF0310F8B5C0460448054B10B58342A6
:1002900003D0044B002B00D0984710BDCC14002095
:1002A000CC1400200000000006480749091A8B10F2
:1002B000C90FC91810B5491003D0044B002B00D04A
:1002C000984710BDCC140020CC1400200000000082
:1002D00010B5074C2378002B09D1FFF7D5FF054B4C
:1002E000002B02D0044800E000BF0123237010BDA2
:1002F000E819002000000000B0810410054B10B583
:10030000002B03D00449054800E000BFFFF7CCFFF5
:1003100010BDC04600000000EC190020B0810410A0
:1003200010B53DF023FC084A1378002B03D120BF01
:100330001378002BFBD0054B1B68002B01D098478E
:1003400010BD30BF30BFFCE7F3330120EC75002057
:10035000F0B5DE46574645464E46E0B589B03FF01B
:10036000B5FF954840F004F8FA203DF065F8934851
:100370003FF0FEFF924840F06BFA0A203DF05CF837
:1003800001F0CCFF02F016FC03F05CFA0DF0AEFCBD
:100390008C4B984618000DF081FC43468A4F1A7822
:1003A0003860002A18D00024884E00E03868A50084
:1003B0004359002B0CD09968002909D019683000E6
:1003C00040F05EF83B685B599B68984743461A7853
:1003D0000134E3B29342E9D37D4B994618000DF006
:1003E00063FC4B467B4E197830607B4B002930D044
:1003F0000368002B01D0794A1360794B00249A4698
:1004000000E03068A5004359002B0CD09A68002A00
:1004100009D01968504640F033F833685B599B683F
:1004200098474B4619780134E3B28B42E9D300294F
:100430000ED00024002335682A59002A03D0106901
:10044000002800D0ABE00133DBB204348B42F3D19F
:10045000614B1B68002B00D1ABE06249624840F061
:100460000FF80122614B1A7040BF61483FF080FFD6
:10047000604B614D9A469B6A2A789B4600935F4B7E
:1004800002935F4B03935F4B04935F4B05935F4B6A
:1004900006935F4B07935B46019343461878002809
:1004A00021D0B34600244646A84607E08847434685
:1004B00030781A780134E3B2834211D23B68A50048
:1004C0005B59002BF6D0D9680029F3D0002AEDD073
:1004D000196802983FF0D4FF3B685B59D968E5E79B
:1004E0004546B0465E464B461878002821D0BB46AC
:1004F00000244F46A94607E088474B4638781A78CB
:100500000134E3B2834211D23368A5005B59002B5A
:10051000F6D0D9680029F3D0002AEDD019680398E5
:100520003FF0AEFF33685B59D968E5E74D46B94601
:100530005F46002A23D10DF067FC5346FA229C6ADD
:10054000019B9200E31A93420AD32B78002B22D10D
:1005500003F06EFA2B78002B19D101F0E7FE01941D
:10056000009B2C4AE31A934205D92B78002B0AD121
:1005700002F024FB0094002300222B708DE70498E6
:100580003FF0F6FED7E707983FF0F2FEF0E7069857
:100590003FF0EEFEE1E705983FF0EAFED8E711688C
:1005A0001D483FF06DFF32680B4B125912691A60FB
:1005B0004FE71A4952E7C046BC810410D4810410A9
:1005C000210300100634012020C3002004820410FF
:1005D000123401204CCA0020EC7500202850002065
:1005E00028820410B08104106C820410F3330120BF
:1005F0009482041000400540B00A0020B08204102C
:10060000CC820410E8820410FC82041014830410CD
:10061000288304100F2700004C820410B4810410BA
:10062000F0B5C646837800B5042B4AD1072A48DCCA
:10063000C900484E8B18DB00F5186C79A446FF2CD6
:1006400019D01724F75A0457E419A7B224B2B846B0
:100650007F2C4CDD7F24F45263468034C3181C7415
:100660002B79002B07D07F248F182500FF009C4298
:1006700053DC651BF5538B18DB00F3189D79FF2DB8
:100680001CD018245F880457E419A7B224B2BC46D2
:100690007F2C19DC27007F3750DA01277F2445198A
:1006A0002F741D7964425C80002D07D08918C90021
:1006B00062427118AA4232DC12194A800023C375C3
:1006C000037680BCB846F0BD7F2445195C80803439
:1006D0002C741D79002DF1D07F248918C9002300C6
:1006E0007118AC4200DD2B00E31A4B80E6E72700CF
:1006F0007F3716DA7F246442F45263460127C31819
:100700001F742B79002BB6D08F186542FF009D42D5
:1007100000DD1D002D19F553ADE71D00A9E72A00E6
:10072000CAE7F45247466346803FC3181F742B79CB
:10073000002BA0D0002C97DC9DD0E5E7674645193B
:10074000803F2F741D795C80002DB7D0002CC4DC55
:10075000B4D0ABE744C70020F0B54E46DE4657465E
:100760004546E0B5814689B0002800D114E1122247
:1007700049468E483EF01CF88D483FF0F9FD4B4647
:100780001B78002B00D0C2E08A498B483FF078FEEE
:100790004B461B78012B00D1C6E0884BFF25029306
:1007A000874B0493069304235B4201930023009339
:1007B0000593844B0793844B9B4601239A46079AE3
:1007C0000027161D009A069BB61A059A984694466D
:1007D0001C1D930063445B0063449B0103935422FC
:1007E000002140463DF0DEFF43465A461A6153461B
:1007F00023700423A377FA23DB00E385FA231B018C
:1008000023865823039A7B439446049A6344944670
:10081000002263445433A575E575257665761A7014
:100820005123E7540133E254009B0199F3185A50C5
:100830004B46DB7B013733704B461B7C583473705F
:100840004B465B7CB37058239C460836E044082F27
:10085000C5D1029B5D4A1C0094465D4A1F0064445A
:1008600094465C4A6744944663441E0000239846BD
:1008700043463800A37023706570542200213DF078
:1008800091FF5B463B615346A577E5773570757000
:1008900023720423B371FA23DB00F382FA231B01D2
:1008A0003383029B5834583758369C42E0D1B021EC
:1008B00089008C46220062440292069A059B62449B
:1008C0000692009A0133403A0092019A0593403211
:1008D00001920B2B00D072E73F4B00221900E03150
:1008E0001A7007339942FBD13C4B3D481A703FF0D8
:1008F0003FFD3C483FF03CFD4B46997B002924D10D
:1009000009B0F0BCBB46B246A946A046F0BD012BDB
:1009100048D0022B2CD0344927483FF0B1FD4B463C
:100920001B78012B00D038E74B465B78002B1BD19E
:100930002E492F483FF0A4FD4B465B7B002B2FD068
:100940002C492D483FF09CFD27E72C483FF098FDAF
:100950004B469B7BDA0713D49A070BD45B07CFD5A2
:1009600027483FF005FDCBE7012B1DD02549E0E7E7
:1009700025490AE725483FF0FBFC4B469B7BEDE70A
:100980004B464A464946DB7B527C097C20483FF077
:1009900077FD4B469B7BDFE71E483FF0E9FCAFE766
:1009A0001D49CEE71D49F0E61D49C2E704DF0020DE
:1009B000A883041048830410C483041088530020C3
:1009C00018DF002044C700208080808040FDFFFFAA
:1009D00044FDFFFF60FDFFFF5BFD00201C34012094
:1009E00014840410308404105083041070830410A5
:1009F000D883041084830410F483041054840410F6
:100A0000E48404106C83041060830410C484041014
:100A1000808404108C8304108883041040830410A5
:100A20007C83041070B5184E0D00317813001F2917
:100A300023D8164CCA00521A1055A4180122E2708D
:100A4000002201312271FF326570A3706271A271C0
:100A5000317000280BD0EDB20D49072D0BD80D4A8F
:100A6000AD00AA580C483FF00BFD012070BDEDB25F
:100A70000A49072DF3D9064AF4E7202108483FF038
:100A8000FFFC0020F2E7C0461C34012058FD002086
:100A900030EB0410045605103C8504100885041042
:100AA0000C850410F0B5DE4657464E464546E0B587
:100AB0000400D7B0002856D0BA4B1B78002B52D078
:100AC0000023B94A04E001330732202B00D192E021
:100AD00011780029F7D00126B44AD900CB1AD218D0
:100AE000B34B96579B461B78022B00D18AE0022B12
:100AF00000D933E1002B3DD001212078615602F06E
:100B00009BFF002800DA4CE35B469D7B002D00D064
:100B10006DE25B465B78012B01D100F0F0FBA54D47
:100B2000B700022B00D195E2002B0DD1B81940007F
:100B3000801980012818030056331B78002B03D13D
:100B4000542221003DF034FEBB195B009B199B0130
:100B5000EA18130001215433197000219970964B43
:100B6000DB59002B44D157B0F0BCBB46B246A94676
:100B7000A046F0BD01212078615602F05DFF051E00
:100B800000DAB9E25B469B199B78AB42EBDD5B4632
:100B90009B7B9846002B0AD01EAF542221003800C0
:100BA0003DF006FE4346DB0700D564E23C00834B84
:100BB000B7009B5D9946002B14D158217D4B6943AA
:100BC0009846BA195200921992018A18904421004D
:100BD000542240463DF0ECFD4346012254331A7046
:100BE0004A469A70744BDB59002BBCD02200E9B204
:100BF00030009847B7E76E4B08269B461B78022BC0
:100C000000D074E701216E4B20789A461B7861561C
:100C1000002B00D11CE36B4B00260293674B04931F
:100C2000654B0593634B07935346DA469B4649E071
:100C30005346DB199B78AB423ADD53469B7BA1467A
:100C40009846002B0AD01EAB18005422210099466A
:100C50003DF0AEFD4346DB0700D545E3049BBA00FB
:100C6000DB5D90460393002B19D141465822CB19E6
:100C70006A435B00DB1907989B01D318844619006F
:100C8000614408005422494606903DF091FD0699C2
:100C90000122080054300270039A56310A7042460D
:100CA000059B9B58002B03D04A463800E9B2984771
:100CB0005B4601361A78F3B29A4200D853E7012115
:100CC00020786156029B9F5702F0B6FE051EAFDAF0
:100CD000E268A3681343227C1100803901D580218A
:100CE000891A322919DC627C1100803901D58021F2
:100CF000891A322911DCA27C1100803901D58021AA
:100D0000891A322909DCE27C1100803901D5802161
:100D1000891A322901DC002BCAD0E278032A6ED866
:100D2000012A00D860E120780EF0B4FBE2780028B8
:100D300011D0254B418F994201D100F00DFC036C7D
:100D4000002B03D01B689846002B5DD1037A002B43
:100D500001D000F018FC1D4B984655E0032B00D045
:100D600001E7D92398460023104FB844FA78002AA7
:100D700010D03A78002A0DD13A79002A02D0217891
:100D8000914207D10522BA56511C21D0012161564A
:100D900091421DD0B84500D174E1BA7A0737002AD4
:100DA000E7D1F7E71C3401205BFD002058FD00204F
:100DB00004DF002018DF002020CA002014CA002011
:100DC000DB3301202C5000207E05000090850410AC
:100DD000D8005D1CC01AA0235B00C01806AB9C465F
:100DE000604407223900E038EDB23DF0E1FCB8453F
:100DF00000D148E10737202D19D02B00B6E7042A8F
:100E000000D0F1E0B44B984601214346615620786A
:100E100002F06EFE051E00DA4AE70122A256237890
:100E2000411C0092AD4842463FF02AFB00E706AA6B
:100E30009446612363449A46002356469A465B468D
:100E4000A74A03950592A74A04930692A64A0792D9
:100E50003FE0049BA1469F7B002F09D009AB5422A1
:100E60002100180099463DF0A3FCFF0700D5B5E02E
:100E7000059B5B5D9B465A46AB000293002A16D148
:100E8000424658275B1957435B005B199B01FF18CB
:100E9000079B54229C466744380049463DF088FC35
:100EA0003B00012254331A705B4656373B70069B59
:100EB000029A9B58002B03D04A4641462800984787
:100EC00053460133DBB29A46039B07369A4500D15D
:100ED00049E60025737975579846072BB9D9012142
:100EE0002078615602F0A8FD071E3FDB049A5319D3
:100EF0009B78BB42E4DD937BA1469846002B0ED045
:100F000009AB18005422210099463DF051FC43469C
:100F1000DB0704D53A0029004846FFF781FB704BF8
:100F20005B5D9B465A46AB000293002A14D15821C0
:100F30006D4A794390465B195B005B199B01C918A8
:100F400088445422494640463DF032FC4346012243
:100F500054331A705A469A70624B029A9B58002B6F
:100F6000AED04A462800F9B29847A9E7E268A368DC
:100F70001343227C1100803943D4322913DC627C74
:100F80001100803940D432290DDCA27C1100803957
:100F90003DD4322907DCE27C1100803957D4322954
:100FA00001DC002B8CD0E278032A33D9042A00D04C
:100FB00060E2494B9846012143466156207802F091
:100FC00097FD071E00DA7BE70122A2562378411C19
:100FD0000092424842463FF053FA87E742462900D2
:100FE0004846FFF71DFB43E7404B98460CE71EAF12
:100FF0005422210038003DF0DBFBED0734D43C00E7
:1010000087E58021891AB8E78021891ABBE780210A
:10101000891ABEE7012A00D82CE220780EF03AFAAD
:10102000E278002810D0324B418F994200D1BAE2C9
:10103000036C002B03D01B689846002BBBD1037AAE
:10104000002B01D000F0B7FC2A4B9846B3E7802173
:10105000891AA4E7B81940008019800154222100A0
:1010600028183DF0A5FB6FE5002231003800FFF79E
:10107000D7FA3C004DE52A0031003800FFF7D0FADE
:101080003C0094E51D00002D00D0D0E60121207821
:10109000615602F0D1FC051E00DA07E25B469B199F
:1010A0009B78AB4200DC5EE55B469F7B002F00D166
:1010B0007DE509AB54222100180098463DF078FBED
:1010C000FF0701D4444672E52A0031004046FFF78D
:1010D000A7FA44466BE5C0466C850410D48504101D
:1010E00014CA002020CA002018DF002088850410C0
:1010F0007E05000090850410E368A1681943237CF5
:101100001A00803A01D58022D21A322A1ADC637C76
:101110001A00803A01D58022D21A322A12DCA37C2E
:101120001A00803A01D58022D21A322A0ADCE37CE6
:101130001A00803A01D58022D21A322A02DC002914
:1011400000D110E5E278032A00D9D3E0012A00D8C3
:1011500000E220780EF09EF9E278002800D11AE231
:10116000C84B418F994201D100F013FC036C002B56
:1011700000D10CE21F68002F00D108E201213B00E2
:101180006156207802F0B4FC051E00DAEBE401227F
:10119000A2562378411C0092BB483A003FF070F9F8
:1011A000F0E4E368A1681943237C1A00803A01D572
:1011B0008022D21A322A1DDC637C1A00803A01D5C3
:1011C0008022D21A322A15DCA37C1A00803A01D57B
:1011D0008022D21A322A0DDCE37C1A00803A01D533
:1011E0008022D21A322A05DC002903D1A378042BED
:1011F00000D0B8E4E278032A00D93EE1012A00D801
:10120000BFE120780EF046F9E278002800D1C4E171
:101210009C4B418F994200D160E3036C002B00D1BD
:10122000D5E11D68002D00D1D1E101212B006156CF
:10123000207802F05DFC002800DA94E40122A25636
:101240002378411C009291482A003FF019F95BE491
:1012500002F0F2FB051E00DB94E4E368A168227C47
:1012600019431300803B01D580239B1A322B1ADCD3
:10127000627C1300803B01D580239B1A322B12DC49
:10128000A27C1300803B01D580239B1A322B0ADC01
:10129000E27C1300803B01D580239B1A322B02DCB9
:1012A000002900D15FE4E278032A23D8012A00D87C
:1012B00050E120780EF0EEF8E278002800D16AE1E3
:1012C000704B418F994200D1ADE3036C002B03D0EA
:1012D0001F68002F00D051E7037A6D4F002B00D11B
:1012E0004CE70830070049E72A0039004846FFF775
:1012F00097F9B3E4042A00D02CE1664F3EE7664B31
:10130000B70099464A46BB195B009B199B01D2184E
:1013100091788846002905D048462178C35C9942D7
:1013200000D1D2E2BB195B009B199B014B441A0010
:101330005A3212789446002A06D01A005832217880
:101340001278914200D14AE1BB195B009B199B01C5
:101350004B441A00B2321578002D05D0023A21789C
:101360001278914200D1CCE2BB195B009B199B0122
:101370004B441A000B32FF321078002805D0023A95
:1013800021781278914200D1D6E2BB195B009B19FB
:101390009B014B441A006332FF321178002908D0B8
:1013A000227892461A006132FF321278924500D1BB
:1013B000CDE2BB195B009B199B014B441A00BB3269
:1013C000FF3212780392002A08D0227892461A003F
:1013D000B932FF321278924500D1C3E2BB195B00EB
:1013E0009B192E4A9B014B449A1812789346002A67
:1013F00008D022789246842292009A181278924558
:1014000000D1BAE2BB195B009B19254A9B014B44F2
:101410009A1812780292002A0CD09A2292009246D0
:101420009A4452461278049222789246049A52457F
:1014300000D170E24346002B00D130E36346002B1D
:1014400000D12AE3002D00D125E3002800D120E3BC
:10145000002900D11BE3039B002B00D115E35B4661
:10146000002B00D10FE3029B002B00D1F9E20D4DC0
:10147000FFF76AFB0C4B98469DE5042A00D080E0FC
:10148000044DD2E67E050000D485041010860410B9
:10149000908504106C850410C850002012020000D2
:1014A0006A02000018DF002088850410E368A16844
:1014B000227C19431300803B01D580239B1A322BD9
:1014C0001BDC627C1300803B01D580239B1A322BEE
:1014D00013DCA27C1300803B01D580239B1A322BA6
:1014E0000BDCE27C1300803B01D580239B1A322B5E
:1014F00003DC002901D1FFF736FBE278032A4ED83E
:10150000012A6AD920780DF0C5FFE278002800D1C1
:101510005EE2D04B418F994200D170E2036C002B08
:1015200000D15BE21F68002F00D157E201213B0090
:101530006156207802F0DCFA051E01DAFFF713FB92
:101540000122A2562378411C0092C3483A003EF083
:1015500097FFA3E5C14F11E6838FC1498B4200D1AC
:10156000E6E1C0498B4200D12AE2BF498B4200D15B
:101570002AE2BE498B4201D0FFF7E1FBBC4B984603
:1015800042E4B64D51E60823984680443CE4037A91
:10159000002B00D0A5E6B74FF0E5B64D45E6042A8E
:1015A0001BD1B54FC2E7838FAD498B4200D111E209
:1015B000AC498B4200D132E2AB498B4200D143E2CD
:1015C000AA498B4200D033E5A94B9846F3E4037A4D
:1015D000002BE2D00830050027E6A04FA6E7012245
:1015E00059331B78A2565BB29A4200D0ACE6012276
:1015F000BB1958205B009B199B019A4650435044ED
:1016000048442100542204303DF0D2F853469B4D0B
:101610005422EC18200000213DF0C4F85346984AAB
:101620001033EA5001235B426383A38302332371A7
:101630002300042222331A70FA23DB006386FA2384
:101640001B01A38653462A334B44984653463B33EB
:101650004B449B46B0239B004B4453444C46994615
:101660000123B7000293BB195B0054449A46B2446D
:101670005346BA464746B0461E0007E058239C46EC
:1016800058345837E344A14500D1DEE0A378002B5D
:10169000F4D0B201AA189368E168207D0B439360EF
:1016A0002169D3680B430100803949B2D360CB175D
:1016B000C91859408C46137C803B5BB2D9175B1824
:1016C0004B406146DBB2C9B2994200D91074607DCB
:1016D000B1010200803A52B2D317D2185A40944650
:1016E00069184B7C803B5BB2DA179B18534062460B
:1016F000DBB2D2B29A4200D94874A07DB101020097
:10170000803A52B2D317D2185A40944669188B7C4B
:10171000803B5BB2DA179B1853406246DBB2D2B211
:101720009A4200D98874E07DB1010200803A52B239
:10173000D317D2185A4094466918CB7C803B5BB2D1
:10174000DA179B1853406246DBB2D2B29A4200D9F4
:10175000C874B301EB18227E197D914200D21A752C
:10176000B301EB18627E597D914200D25A75B301E4
:10177000EB18A27E997D914200D29A75B301EB18C5
:10178000E17EDA7D5218DA75217F1A7E52181A76B8
:101790000022E27622773A7C002A12D01A003632F2
:1017A000117800290DD1013111703A88DA847A88D4
:1017B0001A85BA885A85FA889A853A89DA857A89A3
:1017C0001A865B461B7B002B06D0B301EB181A0070
:1017D00043321178002955D02A23FB5C002B16D008
:1017E000B0012818030050331A78002A0FD10132B3
:1017F0001A703B001E3319680200416439009B884F
:10180000443293804A30062224313CF0D1FF5B46BB
:101810009A7E002A0BD0B301EB18190051310878D9
:10182000002804D10A702C22BA5C52331A70029B31
:10183000002B07D02279B301EA546279EB185A7071
:10184000A2799A700023029318E746465746FFF79D
:101850007BF9C0467E050000D485041088850410FD
:10186000732000006920000066200000672000004F
:101870009C850410908504106C85041018DF0020EE
:101880008080808001311170594609780C3A1170BE
:10189000B97C42335170594689789170397DD17045
:1018A000594609791171B97D5171594689799171FA
:1018B000397ED1715946097A1172B97E51725946F1
:1018C000897A91723A7F1A7086E701210123615665
:1018D000D356994200D025E5002289E6838F7449CA
:1018E0008B4200D188E073498B4200D181E072497C
:1018F0008B4200D17AE071498B4200D08DE4704D6B
:1019000093E40122B1331B78A2565BB29A4200D015
:101910002AE502226CE66B4A924653441B78072262
:101920005BB29A460123E3569A4500D082E55FE612
:10193000654B9846FFF768FA01220A33FF331B789C
:10194000A2565BB29A4200D01FE5032250E6012264
:101950006233FF331B78A2565BB29A4200D028E56F
:10196000042245E60122BA33FF331B78A2565BB24C
:101970009A4200D032E505223AE6544A92460122C4
:1019800053441B78A2565BB29A4200D03AE5062235
:101990002EE6838F46498B4260D046498B425AD00F
:1019A00045498B4254D045498B4201D0FFF7DEFBBD
:1019B000434FFFF7E3FB082398468044FFF7FBFA09
:1019C000434B9846FFF720FA424B9846FFF71CFA24
:1019D000414FABE53C4B9846FFF7EDFA037A3E4F9B
:1019E000002B00D1A2E5083007009FE5394DFFF735
:1019F0001CFC374DFFF719FC334DFFF716FC838FA6
:101A00002B498B4251D02B498B424CD02A498B42D7
:101A100047D02A498B4200D080E5294F86E52C4BE0
:101A20009846FFF7C8FA838F21498B4216D0214987
:101A30008B4210D020498B420AD020498B4200D0E3
:101A400043E41F4FFFF79AFB224B9846FFF7B3FA88
:101A5000204FFFF793FB1E4FFFF790FB1A4FFFF746
:101A60008DFB07225821BB1951435B009B199B0139
:101A7000CB18494601204D46C91888702078E85493
:101A800063784B70B4E50622ECE70522EAE704220E
:101A9000E8E70322E6E70222E4E70122E2E7002288
:101AA000E0E70C4F42E50A4F40E5074F3EE5C046F0
:101AB00073200000692000006620000067200000FD
:101AC0009C85041069020000748504101102000056
:101AD000C4850410B0850410908504100A2802DC27
:101AE000024B187870470020FCE7C046F0CB00207E
:101AF0000D4B1B78002B10D100230C4A03E001335F
:101B00000732202B0DD011780029F8D00120084A87
:101B1000D900CB1AD218105670470020054B185622
:101B2000FAE701204042F7E7DB3301205BFD0020AC
:101B300058FD00202C500020C3B2020010B50A2B23
:101B40000DD8084B8000C1500800441EA041064B30
:101B50009854002904D0054905483EF091FC10BD79
:101B60000449F9E720CA002014CA00206CF00410D0
:101B70008C8604105C860410F0B54546DE46574658
:101B80004E46E0B53E4885B03EF0F2FB3D4BFF25AA
:101B900099463D4B012701930393002302933B4B4E
:101BA0009846029A039B94469A461C1D93006344F0
:101BB0005B0063449B0100269B4654225046002153
:101BC0003CF0F0FD534642461A610423A377FA2302
:101BD000DB00E385FA231B0123865823019A734314
:101BE00094465B4463445433A575E5752576657664
:101BF00027701F7058239C460136E2445834082E43
:101C0000DBD1234B234C4B449A4600239B46224E68
:101C10004C444E445B465422A3702370504665707A
:101C200000213CF0BFFD534642461A610423A577CC
:101C3000E577357075702772B371FA23DB00F38294
:101C4000FA231B01338358239C465834E244583608
:101C50004C45DFD1B021B022890092008C469146DC
:101C6000029B039A013362440293A14403920B2B1B
:101C700097D105B0F0BCBB46B246A946A046F0BD20
:101C8000B48604108853002018DF002080808080F4
:101C900044FDFFFF40FDFFFF60FDFFFFF0B5DE46A6
:101CA000454657464E460400E0B50D0087B00A0091
:101CB0000291D24821003EF0E3FB2900200001F010
:101CC000BBFE0023CE4A039004E001330732202BF1
:101CD00000D104E211780029F7D0CA4AD900CB1A02
:101CE000D2180123D3560493C74B58219C46614414
:101CF0008A46B0216144894684211F009A221E0031
:101D00001D00059300234900614488466137842102
:101D10009200FF376244934601933A002300B9369C
:101D20008900FF36614447464C469046B1460091D3
:101D300056469A4649E0B378002B03D03378534592
:101D400000D193E1A378002B03D02378534500D131
:101D500028E1BB78002B03D03B78534500D159E1F3
:101D600043469B78002B03D043461B7853455BD0FA
:101D70004B469B78002B04D04B461B78534500D133
:101D800081E0009A9378002B03D01378534500D15B
:101D9000A9E05B469B78002B04D05B461B7853453B
:101DA00000D1CFE0B02292009446019B009A01330B
:101DB000624401936544664464446744E044E144FA
:101DC0000092E3440B2B00D17BE1AB78002BB2D027
:101DD0002B785345AFD10123029AEB569342AAD1F7
:101DE0000023FF22AB702B706A700021281DAB3AD4
:101DF0003CF0D8FC854BFF226B612023AA77EA7761
:101E0000EA540133EA54203B2B72FB3A2533EA545F
:101E1000FA23DB00EB86FA231B010021019A2B87B2
:101E20007B483EF02DFB86E743465B78029A5BB227
:101E300093429DD14246002328009370137043467D
:101E4000FF2265305A700021AB3AFF303CF0AAFC0B
:101E500041466E4BFF224B6120238A77CA77CA54D2
:101E60000133CA540422203B0B722533CA54FA238F
:101E7000DB00CB86FA231B010B87019A04216448FF
:101E80003EF0FEFA74E74B465B78029A5BB29342EF
:101E900000D076E74A4600232800937013704B4623
:101EA000FF22BD305A700021AB3AFF303CF07AFC83
:101EB0004946564BFF224B6120238A77CA77CA5482
:101EC0000133CA540422203B0B722533CA54FA232F
:101ED000DB00CB86FA231B010B87019A05214C48B6
:101EE0003EF0CEFA4DE75378029A5BB2934200D0AF
:101EF0004FE70023009AFF219370137085239B0006
:101F00005170E818542200213CF04CFC009A3F4BE1
:101F1000FF21536120239177D177D1540133D154DC
:101F2000203B1100137204222533CA54FA23DB002C
:101F3000CB86FA231B010B87019A062134483EF019
:101F40009FFA26E75B465B78029A5BB2934200D029
:101F500028E75A460023937013705B46FF225A709D
:101F60009B239B00E8180021AB3A3CF01BFC594630
:101F7000264BFF224B6120238A77CA77CA5401334C
:101F8000CA540422203B0B722533CA54FA23DB00C7
:101F9000CB86FA231B010B87019A07211C483EF0D0
:101FA0006FFAFFE60123029AE356934200D0D0E68F
:101FB0000023FF222800A370237062700021AB3A37
:101FC000B4303CF0EFFB114BFF2263612023A2777A
:101FD000E277E2540133E254203B2372FB3A25338B
:101FE000E254FA23DB00E386FA231B010221019A63
:101FF000238707483EF044FAABE6C046E08604106B
:102000005BFD002058FD0020C850002080808080AB
:10201000188704100123029AFB56934200D09FE6D2
:1020200028000023FF220D30BB703B707A70002126
:10203000AB3AFF303CF0B6FBB14BFF227B61202373
:10204000BA77FA77FA540133FA54203B3B72FB3AE1
:102050002533FA54FA23DB00FB86FA231B01032104
:10206000019A3B87A7483EF00BFA79E60123029AD2
:10207000F356934200D065E60023FF222800B37098
:10208000337072700021AB3A5C303CF08BFB9C4BA0
:10209000FF2273612023B277F277F2540133F254B6
:1020A000203B3372FB3A2533F254FA23DB00F386EC
:1020B000FA231B010121019A338792483EF0E0F98F
:1020C00040E6914D2E78012E41D0039B072B09D974
:1020D00007B0F0BCBB46B246A946A046F0BD183BCF
:1020E000049301E6049A5825944696005D43B3187C
:1020F0005B006344854F9B01ED18EC1954220021CD
:1021000020003CF04FFB7E4B10357B512200012319
:1021100004215B4222326383A3831170FA22D2002E
:102120006286FA221201A2862200023354322371FF
:102130001370774BF358002B04D06A460498117B38
:1021400022009847039973483EF09AF9C0E7049B30
:1021500000219A0093461F009C465F447F006B4B12
:102160006744BF01DC195422200000933CF01AFBA5
:102170003A00103213000099614ACA5001235B42B1
:102180006383A3832300042222331A70FA23DB0023
:102190006386FA231B012671A3866B78012B19D065
:1021A000049A130094465B44009A5B00634494468F
:1021B00001229B01634454331A705A46544B9B5876
:1021C000002B03D0220000210498984752483EF08B
:1021D000CFF87DE7059B3800B0219C46890055303B
:1021E00060448C4611218A46013189460131884676
:1021F000DA19A1446344DB19A2444F46A04403E02A
:10220000583258309A42CBD091780029F8D0A16842
:10221000D5682943A1601569E1682943157DE1600E
:102220002900803949B2CE17891971408C46217C2A
:10223000803949B2CE17891971406646C9B2F6B2E3
:102240008E4200D92574557D2900803949B2CE17B8
:10225000891971408C4651460978803949B2CE17A8
:10226000891971406646C9B2F6B28E4201D951460B
:102270000D70957D2900803949B2CE1789197140BA
:102280008C463978803949B2CE1789197140664633
:10229000C9B2F6B28E4200D93D70D57D2900803991
:1022A00049B2CE17891971408C4641460978803968
:1022B00049B2CE17891971406646C9B2F6B28E424C
:1022C00001D941460D70117E257D8D4200D22175C8
:1022D000517E657D8D4200D26175917EA57D8D42D6
:1022E00000D2A175017800298AD0250051352E78B9
:1022F000002E85D129702100457852310D707FE77D
:10230000808080801887041004DF002018DF002000
:1023100020CA0020788704104C87041010B500F004
:1023200047FA10BD10B500F031FA10BD054B064A52
:102330001868126810B5904200DA100000F0E2FA56
:1023400010BDC046E8750020F0CB002010B500F0AD
:10235000B5FA10BD10B500F0CDFA10BDF0B5CE46FF
:10236000474680B5002824D0184BFF261F68184B1D
:1023700049081A6800239946FF231B029846FF2349
:1023800004321B063F249C4608189200360403E0E2
:10239000D651013188420CD023000B40092BF7D9CC
:1023A0001D000F3D092D08D863460131D3518842E5
:1023B000F2D1C0BCB946B046F0BD1E3B092B02D8D5
:1023C0004346D351E5E74B46D351E2E7A0CB00208B
:1023D0004003012070B50400080064213BF06AFD51
:1023E000002C18D0002200260B4B1D680B4B1868E0
:1023F000043080000B025B181B025B181B020131CA
:102400004351642904D10132944204D00121465140
:1024100001329442EED170BDA0CB002040030120D8
:10242000F8B5CE46474680B50700080064213BF06A
:1024300041FD0C00002F1CD0104B00251B68984656
:102440000F4B1E68002399460436B600E0B20A21FD
:102450003BF030FD434600060134F050642C05D1BA
:102460000135BD4205D04A460124F2500135BD4236
:10247000ECD1C0BCB946B046F8BDC046A0CB0020E8
:102480004003012010B500280CD0074B80211C68A8
:10249000064BC9031A68002304329200013311511C
:1024A0009842FBD110BDC046A0CB002040030120C4
:1024B00010B500280CD0074B80211C68064BC905BD
:1024C0001A68002304329200013311519842FBD163
:1024D00010BDC046A0CB00204003012010B500284D
:1024E0000BD0064B06491C68064B1A6800230432C1
:1024F0009200013311519842FBD110BDA0CB0020B6
:10250000002040144003012010B500280BD0064BDA
:1025100006491C68064B1A680023043292000133F6
:1025200011519842FBD110BDA0CB002000004040CB
:1025300040030120F0B500281FD0104BFF261F6874
:102540000F4B49081A68FF2304321B023F249C46A4
:1025500008189200360408E01D000F3D092D08D828
:1025600063460131D351884207D023000B40092B29
:10257000F2D80131D6518842F7D1F0BDA0CB00206E
:1025800040030120F0B5C64600B5002822D0164B06
:10259000FF261F68154B49081A68FF231B0498463D
:1025A000FF2304321B023F249C4608189200360683
:1025B00008E01D000F3D092D0FD86346D3510131AE
:1025C000884207D023000B40092BF2D80131D651A5
:1025D0008842F7D180BCB846F0BD1E3B092BF5D828
:1025E0004346D351EBE7C046A0CB00204003012077
:1025F000F0B5CE46474680B5002824D0184BFF26BC
:102600001F68184B49081A68174B04329946FF2374
:102610001B069846FF231B043F249C460818920083
:10262000360203E0D651013188420CD023000B4022
:10263000092BF7D91D000F3D092D08D8634601313C
:10264000D3518842F2D1C0BCB946B046F0BD1E3B62
:10265000092B02D84346D351E5E74B46D351E2E775
:10266000A0CB00204003012000281400F0B5D6467E
:102670004F464646C0B5002823D0204BFF261C6895
:102680001F4B49081F683F223B1D9A469D00FF23B0
:102690001B069846FF231B049C460818360203E0DD
:1026A0002E51013181420CD013000B40092BF7D978
:1026B0001F000A3F092F09D8634601312B5181427F
:1026C000F2D1E0BCBA46B146A846F0BD14277F421D
:1026D000B94699444F46092F02D843462B51E0E7AB
:1026E0001E3B092B04D85346064F9B001F51D8E7C9
:1026F0005346054F9B001F51D3E7C046A0CB002097
:1027000040030120002814000000FFFFF8B5050079
:1027100049070FD100280DD00024074F074E44F081
:10272000C7F833683A68043300029B0001349850BC
:10273000AC42F4D1F8BDC046A0CB0020400301203C
:10274000F0B5C646050000B5490717D1002815D0D9
:102750000C4B002498460F260B4F44F0A9F8434633
:10276000196803003340584243413A685B420432DF
:102770001B02920001345350AC42EED180BCB846EB
:10278000F0BDC046A0CB002040030120044B1870D0
:10279000044B1970044B1A700122044B1A707047D5
:1027A0001634012015340120143401200434012092
:1027B000F0B5D6464F464646C0B53748374F86B087
:1027C000012138603EF0EEF8354B364998461860E6
:1027D00038683EF003F943461B683D689946324B22
:1027E0000600E918090D06311020C9B239F014FFAE
:1027F000012349461022009328003EF071F98023FE
:102800005B020293F31CF2011B031343274A0520CA
:1028100013400393264B0593264B04933BF082F819
:102820003BF028FF24493BF0DAFEEC2189053BF020
:10283000D3FE82463BF074FF84B20023002C0ED0FE
:1028400020003BF017FF011C50463BF0C2FE8721E1
:10285000C9053BF0D8FE3BF063FFC3B21B02240462
:10286000320049461C43280002AB02943EF092F924
:10287000494601238B402A68002113432B604346BD
:102880001B683A6804339B00995006B0E0BCBA4616
:10289000B146A846F0BDC04600002050A0CB0020A5
:1028A00040030120945605100000E0AFFFFFFF9F9A
:1028B00000400020000006400024F44A10B5094BF7
:1028C0001A78002A00D010BD074A1070074A01305C
:1028D000C0B2107002221A703AF058FE044B186011
:1028E0005960F0E71134012019340120E13301204F
:1028F000E0190020024B1878431E9841C0B270477F
:1029000011340120F0B54546DE4657464E46E0B547
:1029100083B004003AF03AFE0B0002009149924D58
:1029200088460A604B602978002927D016001F00CE
:102930008E49894608684968361A8F412978009679
:102940000197C8B2022900D19AE003283DD001289E
:102950003BD1874B1B78002B00D0F2E0854B012048
:102960001A68854BD2001968844BD3589847009950
:10297000019A002A00DDBEE000D1B8E02B78002BE0
:102980001AD1052C1FDC002C04D000F0C1FE002859
:1029900000D00624774B7A4D1C604346286869684E
:1029A0001A685B68121A8B4176491600097800296B
:1029B0000ED1002B4FDC4BD003B0F0BCBB46B2466F
:1029C000A946A046F0BD0524DFE700232B70D5E71C
:1029D000002B73DD6C4B684E1F786C4B1B7899464F
:1029E0006B4B1B789B4633689A466A4B1B68009377
:1029F000694B1B689846002C00D085E0C8215046E2
:102A00003BF030FA632900DC98E0D724641A6400B4
:102A10003800FF2160433BF025FA0006070C4846CA
:102A2000FF2160433BF01EFAFF2300041B04184003
:102A300007435846FF2160433BF014FAFF2303404D
:102A40001F434346009A04333F029B009F5067E0B8
:102A5000524B9E42B0D9464B474E1B783168002BF3
:102A600034D1464BE4000120E35898474C4A336880
:102A700012689B1833603AF089FD286069609BE713
:102A800000264449086844490968043189000E5009
:102A9000009E019F002F05DC00D06FE741498E4268
:102AA00000D86BE7404801780139C9B2017001785C
:102AB000C8B200293DD00121297021E0002B00D0AF
:102AC0007AE7364B9E4200D876E783E7314B3749A9
:102AD0001C68314B48781A680B78000489781B020F
:102AE00003430B4304321B0292001351BEE7304BE9
:102AF000994200D842E702232B7043461A685B686C
:102B000049460A604B6039E74A463B0212041343C8
:102B10005A4613434246009904321B029200535016
:102B20001F4B1B68534433603AF030FD28606960E6
:102B300042E7134928700A604B60E1E70F314C000F
:102B400066E7144B19481968134B46781A680378DE
:102B5000360480781B023343034304321B02920085
:102B6000535004E7D014002011340120E019002054
:102B70004334012024070120D01D012024560510D4
:102B80005816002004340120163401201534012089
:102B900014340120A0CB00204003012010270000A6
:102BA000B40A00203F0D0300E13301202C76002001
:102BB0009F86010010B500F005F810BD10B500F0BB
:102BC000C7FC10BD0022F8B54E4B01211A7000263B
:102BD00000234D4A4D4C49420F2B09D84C48101840
:102BE0000568A5425AD001320133FF320F2BF5D9C7
:102BF0008020400510180568A5424FD001320133EE
:102C0000FF32202BE8D1002900DA74E0DF330B40DB
:102C1000CAB21B020F2A4BD93E4A94464222634451
:102C20005B683D4D3D482B603DF02AFC01260023AA
:102C30000027354A354876420F2B09D834495118B8
:102C40000C6884423ED001320133FF320F2BF5D99C
:102C50008021490551180C68844233D00132013378
:102C6000FF32202BE8D1002E3BDBFF243440F6B2AC
:102C70000F2E31D82A4B9C466444240280235B05E6
:102C80009C46802264442100264852003BF090FD7F
:102C900063682B600122244B1A70F8BD4068451C04
:102CA000ACD04D1C01D08642A8D219000600A5E781
:102CB0001E4A94460F228A429241634452425B6804
:102CC0004132AEE749684C1CC8D0741C01D0B942EF
:102CD000C4D91E000F00C1E7154B9C466444240272
:102CE000CCE7144CFC22200000213BF05BFD074B9D
:102CF000043C2360CEE70023074D0F482B603DF0D6
:102D000037FB93E72234012000B01F0052504347A5
:102D10000020001000B01F10F07500203C88041047
:102D2000D01F00003CFE00202134012000D01F10E5
:102D3000B01F000040FE002070880410F8B5012686
:102D400000230027214A224C76420F2B09D8214923
:102D500051180D68A54228D001320133FF320F2BE4
:102D6000F5D98021490551180D68A5421DD00132C1
:102D70000133FF32202BE8D1002E25DBFF24344025
:102D8000F6B20F2E1BD9144B9C46644424028023B8
:102D90005B059C4680226444520021003BF008FD04
:102DA00001200E4B62681A60F8BD49684D1CDED0E8
:102DB000751C01D08F42DAD21E000F00D7E7084BF6
:102DC0009C4664442402E2E70020EDE700B01F00C7
:102DD0005250434700200010B01F0000F075002043
:102DE000D01F000010B5094C011DFC2220003BF053
:102DF000DFFC0122064B043C2360064B1A703AF0BC
:102E0000C5FB054B1860596010BDC046A4CA002020
:102E1000525043472234012060160020F0B5C646C8
:102E2000010000B5934CF8222000083184B03BF03B
:102E3000BFFC23009049914C0A68083B01320126EF
:102E40001C605A60002700230A608D4976420F2BD0
:102E50000AD88C4808180568A54200D1FDE0013168
:102E60000133FF310F2BF4D9802040050818056885
:102E7000A54200D1F1E001310133FF31202BE6D131
:102E80000F2E00DD4CE1804B5B68013300D16FE217
:102E90007E4B5B68013300D190E27D4B5B68013370
:102EA00000D1A0E27B4B5B68013300D18DE27A4B0D
:102EB0005B68013300D18BE2784B5B68013300D152
:102EC000A6E2774B5B68013300D19BE2754B5B68F0
:102ED000013300D199E2744B5B68013300D19EE26B
:102EE000724B5B68013300D19CE2714B5B6801332C
:102EF00000D19AE26F4B5B68013300D1FDE26E4B6B
:102F00005B68013300D1FBE26C4B5B68013300D19D
:102F100091E26B4B5B68013300D18FE2694B0F216B
:102F20005B680F24013300D19CE1674B5B68013380
:102F300000D119E2654B5B68013300D122E2644B9A
:102F40005B68013300D116E2624B5B68013300D14C
:102F50001CE2614B5B68013300D11BE25F4B5B6895
:102F6000013300D11AE25E4B5B68013300D119E2F4
:102F70005C4B5B68013300D118E25B4B5B6801334B
:102F800000D117E2594B5B68013300D127E2584B5F
:102F90005B68013300D114E2564B5B68013300D10A
:102FA00019E2554B5B68013300D123E2534B5B6858
:102FB000013300D122E2524B5B68013300D115E2AC
:102FC000504B5B68013300D125E201250023002628
:102FD0002B4A2A486D420F2B0AD82A4951180C68EF
:102FE000844200D17BE101320133FF320F2BF4D94F
:102FF0008021490551180C68844200D16FE10132EB
:103000000133FF32202BE6D13F48002D00DA72E178
:10301000EDB20F2D00D86EE13C4C41213DF030FA6D
:10302000220041213A483DF02BFA14203AF004FAEC
:10303000012202AE31003748524202943AF0A2FD1A
:103040000125011E00D078E133483DF091F9334F5E
:1030500000217A680C4D2D4C0DE14068451C00D1D3
:1030600009E7751C02D0B84200D804E71E0007002B
:1030700001E7C046C42F0120F0750020525043479D
:1030800000B01F000020001000D01F1000D11F1042
:1030900000D21F1000D31F1000D41F1000D51F1026
:1030A00000D61F1000D71F1000D81F1000D91F1006
:1030B00000DA1F1000DB1F1000DC1F1000DD1F10E6
:1030C00000DE1F1000DF1F1000C01F1000C11F1006
:1030D00000C21F1000C31F1000C41F1000C51F1026
:1030E00000C61F1000C71F1000C81F1000C91F1006
:1030F00000CA1F1000CB1F1000CC1F1000CD1F10E6
:1031000000CE1F1000CF1F10A088041000D01F0099
:10311000D0880410C100002040890410BC2F012079
:10312000C84B5B68013300D11EE1C74B5B680133BC
:1031300000D127E1C54B5B68013300D11BE1C44BD3
:103140005B68013300D121E1C24B5B68013300D1E0
:1031500020E1C14B5B68013300D11FE1BF4B5B68CD
:10316000013300D11EE1BE4B5B68013300D11DE18C
:10317000BC4B5B68013300D11CE1BB4B5B68013386
:1031800000D12CE1B94B5B68013300D119E1B84B98
:103190005B68013300D11EE1B64B5B68013300D19F
:1031A00028E1B54B5B68013300D127E1B34B5B6885
:1031B000013300D11AE1B24B5B68013300D12AE13F
:1031C000B04B5B68013300D132E1AF4B5B68013338
:1031D00000D18FE1AD4B5B68013300D1CFE0AC4B48
:1031E0005B68013300D18EE1AA4B5B68013300D1EB
:1031F0008FE1A94B5B68013300D187E1A74B5B6886
:10320000013300D18EE1A64B5B68013300D186E12A
:10321000A44B5B68013300D17EE1A34B5B680133B3
:1032200000D185E1A14B5B68013300D18CE1A04B5B
:103230005B68013300D184E19E4B5B68013300D1B0
:103240007CE19D4B5B68013300D174E19B4B5B6873
:10325000013300D169E19A4B0F245B680F210133E0
:1032600000D0B2E6974B9C468023644424025B0561
:10327000954FE51802AE230094483DF001F9944BB8
:10328000802298463900180052003BF091FA4346DC
:103290000122029431008F48736052423AF072FC6E
:1032A000002810D1AC7A2B7A6A68296801946C7A6C
:1032B000894800943DF0E4F80022884B1A7004B06D
:1032C00080BCB846F0BDEFF3108672B6802241464E
:1032D0002000520044F010FF86F31088E2E74968AE
:1032E0004C1C00D18BE66C1C02D0B14200D886E6A3
:1032F0001D000E0083E6FE24422164033DF0C0F869
:103300002200422176483DF0BBF814203AF094F8B0
:10331000012202AE31007348524202943AF032FC6C
:10332000011E09D170483DF023F8FE24664F10219C
:103330007A68444D64039EE700256C483DF0A0F890
:1033400014203AF079F8EFF3108772B6802120004C
:10335000490144F0E1FE87F3108863483DF008F826
:10336000002D00D073E6E0E710211024604B7AE7CF
:103370000021002476E7122112245D4B73E702241A
:1033800002216FE711211124594B6CE713211324FB
:10339000574B68E714211424554B64E71521152475
:1033A000534B60E716211624514B5CE71721172475
:1033B0004F4B58E7182118244D4B54E701210124A5
:1033C00050E71A211A244A4B4DE70321032449E709
:1033D0000421042446E71B211B24454B43E7192104
:1033E0001924434B3FE7022102243BE71E211E2400
:1033F0003F4B38E71C211C243D4B34E71D211D2485
:103400003B4B30E7062106242CE70721072429E758
:103410000521052426E71F211F24354B23E708211A
:1034200008241FE7092109241CE70A210A2419E7B7
:103430000024002116E70D210D2413E70E210E2490
:1034400010E7C04600C01F1000C11F1000C21F10AF
:1034500000C31F1000C41F1000C51F1000C61F109E
:1034600000C71F1000C81F1000C91F1000CA1F107E
:1034700000CB1F1000CC1F1000CD1F1000CE1F105E
:1034800000CF1F1000D01F1000D11F1000D21F103E
:1034900000D31F1000D41F1000D51F1000D61F101E
:1034A00000D71F1000D81F1000D91F1000DA1F10FE
:1034B00000DB1F1000DC1F1000DD1F1000DE1F10DE
:1034C00000DF1F10D01F0000BC2F012060890410F6
:1034D000BC2E0120D1000020988904102234012044
:1034E000D0880410C1000020408904100089041015
:1034F000B01F000001240121B4E60B210B24B1E62A
:103500000C210C24AEE603240321ABE6052405219F
:10351000A8E604240421A5E608240821A2E607243D
:1035200007219FE6062406219CE60E240E2199E63B
:103530000924092196E60D240D2193E60C240C2183
:1035400090E60B240B218DE60A240A218AE6C04668
:103550000B4B70B51B78002B00D170BD094B1C685C
:103560005D683AF013F8001BA941002903DCF4D18F
:10357000054B9842F1D90548FFF750FCEDE7C046EE
:1035800022340120601600203F4B4C00A0CA0020CE
:103590007047C046044B1B78002B02D0034B187AAF
:1035A00070470020FCE7C046213401203CFE00208B
:1035B000054B1B78002B04D0044BD87A0130C0B2E5
:1035C00070470120FCE7C046213401203CFE00206A
:1035D0000B4B1B78002B10D00A4A137A002B0CD00F
:1035E000013BD17ADBB2994207D9032B05D8D80029
:1035F000C01AC0002030801800E000207047C0468C
:10360000213401203CFE0020194B70B51B78002BA3
:1036100010D0184CE57A691CC9B201290AD9267A5A
:10362000701C3AF01FFC0B1CC9B2A94203D8DDB2D2
:10363000AE4204D170BD2B1CDDB2AE42FAD0237273
:103640000D4B211D1C00FC2218003BF0B1F801229B
:103650000A4B043C23600A4B1A7039F097FF094B60
:1036600018605960290008483CF00AFFE2E7C046AC
:10367000213401203CFE0020A4CA002052504347C0
:103680002234012060160020E4890410194B70B523
:103690001B78002B10D01849CC7A631CDBB2012BAD
:1036A0000AD90B7A002B08D05A1E101CD2B2A242A3
:1036B0001AD8C4B2A34200D170BD104D0C72FC22C6
:1036C000280004313BF074F801220D4B043D2B60BF
:1036D0000C4B1A7039F05AFF0B4B186059602100DF
:1036E0000A483CF0CDFEE7E7201CC4B2A342E3D079
:1036F000E3E7C046213401203CFE0020A4CA00209C
:10370000525043472234012060160020E4890410FF
:10371000014B18787047C0463E3401200022024B0E
:103720001A70024B1A7070473E3401203D3401205C
:10373000044A054B12781878002A02D00130C0B232
:10374000187070473E3401203D3401203F23F0B50E
:103750001A00C646324D0400296800B582438B43E7
:10376000002A54D09A424FD0402317005B420B43AB
:103770001F401A4247D02B4924220E1F300043F02D
:1037800093FC802233687762520193423BD1726886
:103790009A4238D18022B3689201934233D1F268C1
:1037A0009A4230D180223369D20193422BD18022B8
:1037B00071691202914226D1B2699A4223D11A4B01
:1037C000984642468023D2691B029A421BD1434647
:1037D0001B6A012B17D1022F15D10122134B1E7822
:1037E00056401E7017D112483CF0C2FD114B1E709E
:1037F000114B1B68002B01D010489847282200214C
:1038000040463AF0CFFF2C6080BCB846F0BD002B9C
:10381000FAD02C60F8E70A483CF0AAFDE8E7C04679
:10382000B80A002094750020907500203E340120D5
:10383000388A04103D340120B87500206C8A0410C9
:10384000088A041010B505212B483CF019FE012010
:103850004042C117294B012218605960180052429A
:103860002D30027042708270C270180031300270C8
:1038700042708270C27018000021353001704170B2
:103880008170C1703A20195418005A300280428069
:103890001C00180062345E3061802180028042800A
:1038A00067240020185520341A551C008734627094
:1038B000A270E2708B241A551C008B346270A270C7
:1038C000E2708F249960597318551C008F34607012
:1038D000A070E0709424185520341A5104341A5101
:1038E000BD32995005329854054B196000F024FC04
:1038F00001F0AAFA10BDC046748A041068160020B0
:10390000F0CB002010B5041E00D16FE03B4B0278D5
:103910003B481A703CF02CFD2378002B62D03949CB
:1039200039483CF0ADFD617838483CF0A9FDA378FA
:10393000002B59D0364937483CF0A2FD01204042C7
:10394000C117354B012218605960180052422D30C2
:10395000027042708270C270180031300270427082
:103960008270C27018000021353001704170817082
:10397000C1703A20195418005A30028042801C004D
:10398000180062345E3061802180028042806724AA
:103990000020185520341A551C0087346270A2701C
:1039A000E2708B241A551C008B346270A270E27096
:1039B0008F249960597318551C008F346070A07063
:1039C000E0709424185520341A5104341A51BD3231
:1039D000995005329854114B196000F0ADFB01F07D
:1039E00033FA10BD0E499BE70E49A4E70E483CF0A0
:1039F000BFFC05210D483CF043FD9FE7F433012057
:103A0000F88A0410C08A0410248B04103C8B041024
:103A100084830410588B041068160020F0CB00201B
:103A2000B88A041088830410C88A0410748A0410A9
:103A300010B501F0ABFA10BD2C4B10B51A689042CE
:103A40001ED03022DC6A9A5C240A1206224390427D
:103A50001DD05A229C5A02329A5A12042243904292
:103A600021D087229C5C01329A5812022243904254
:103A700025D0B4229A5882422DD00120404210BD58
:103A80005A689142DDD1421CDBD00020F7E7342296
:103A90001C6B9A5C240A120622439142D9D1421C23
:103AA000D7D00120EBE75E229C5A02329A5A1204C8
:103AB00022439142D5D1421CD3D00220DFE78B2292
:103AC0009C5C01329A58120222439142D1D1421C8D
:103AD000CFD00320D3E7B8229B588B42CDD1013001
:103AE00043425841434204201843C8E76816002067
:103AF000F0B557464E46DE464546E0B583B00193E5
:103B00004B4B94461B784B4A0E001768002B43D151
:103B1000042F00DD7CE07B1C1360FAB29146013279
:103B2000D2B29046444D7A00D41992462201121B1B
:103B3000040AA3465946AC18A8546170010CA17040
:103B4000310A26716171310C360EE6711E0A23723C
:103B500066721E021B0EE37263462373019B000E06
:103B6000360EE070A171A672002B02D01B78002BDC
:103B70003DD15346DB191A01D31AED1800236B739C
:103B80004146484600F058FB380003B0F0BCBB4645
:103B9000B246A946A046F0BD274D2B68013330D070
:103BA0003023EC6AEB5C240A1B062343013332D03A
:103BB0005A23EC5A0233EB5A1B04234301332DD012
:103BC0008723EC5C0133EB581B022343013328D0DD
:103BD000B423EB58013327D0012398460023002457
:103BE00099460133BC4200DB136027009BE70D328E
:103BF000A81801991F2242F021FE00232C342370C3
:103C0000BEE701230024E1B28946611C8846E9E74A
:103C100001277F42B8E702230124F4E703230224AB
:103C2000F1E704230324EEE705230424EBE7C04671
:103C3000F4330120F0CB002068160020F8B54E4682
:103C40004546DE465746E0B5CE4B06001B78884613
:103C5000002B47D1CC4B1F689946002F00DC96E023
:103C60000025CA4C680043191A01D21AA15CA21897
:103C700053781B020B43917809041943D3781B0630
:103C80000B43B34200D187E00135AF42EADC002F9D
:103C900000DC7CE00123A360012F1DD02200013352
:103CA00035321370002353709370D370022F13D0EA
:103CB00022000321623211805380032F0CD08F2207
:103CC0000131A15422008F3253709370D370042FAE
:103CD00002D00522BC33E250F0BCBB46B246A94636
:103CE000A046F8BD0B00A94C013300D1A7E0236822
:103CF000984200D17EE13023E26AE35C120A1B069F
:103D000013439E4200D149E15A23E25A0233E35A57
:103D10001B0413439E4200D10DE188238725E358FD
:103D2000625D1B0213439E4200D1D6E0B425635965
:103D30009E4200D1BAE02168E26A01314B4259410A
:103D40003023E35C120A1B0613434942013300D0BF
:103D500001215A23E25A0233E35A1B04134301336D
:103D600000D002218723E25C0133E3581B02134396
:103D7000013300D00321B423E358013300D00421E0
:103D8000814C0131824821603CF07AFB2768002F8A
:103D9000A2D1FDF7F1FE9FE7434601330CD05379E2
:103DA00011791B020B43917909041943D3791B063E
:103DB0000B43434500D067E7401901010B1A9A46AF
:103DC000A346D3445A465B46527A1B7A12021A43E0
:103DD0005B469B7A6F481B0413435A46D17A3200E4
:103DE0000906194343463CF04BFB4B461B685F1EDC
:103DF000AF4200DC11E151465B1B5A00D3181A0197
:103E0000D21A2D312D3A5846611843F04DF97A00F7
:103E1000D21913019B1A01225242E254E3185A703C
:103E20009A70DA701A715A719A71DA7100221A72E4
:103E30005A729A72DA725A734B461F6025E72368EA
:103E4000984200D167E13023E26AE35C120A1B0664
:103E500013439E4200D13BE15A23E25A0233E35A14
:103E60001B0413439E4200D115E188238725E358A4
:103E7000625D1B0213439E4200D1E6E0B425635904
:103E8000B34200D057E70127BC237F429846320057
:103E9000E15841483B003CF0F3FAB8234246E75072
:103EA0000023A35005326751A35444E7B827E359D0
:103EB000434500D03FE7BC2332009946E1583648DD
:103EC00043463CF0DDFA01235B424A466351E3512D
:103ED0000023A3500532A3542DE78C238B27E358EE
:103EE000E25D1B021343984500D01FE790228F2309
:103EF000A1589946E35C090232001943264843461B
:103F00003CF0BEFA012322005B42873263555370B6
:103F10009370D37022008B32E35553709370D3703B
:103F200000234A46A35422008F3253709370D370FB
:103F30009422A354FAE65E23E25A0233E35A1B04A6
:103F40001343984500D0E8E664226223A15AE35A5D
:103F5000090432001943104843463CF091FA22000C
:103F600001235A325B421380538022005E32138059
:103F700053802300002262331A805A806723E25460
:103F8000CBE6C046F4330120F0CB002068160020B9
:103F9000188C0410788B0410C08B04103423226B0F
:103FA000E35C120A1B061343984500D0ACE63822A6
:103FB000636BA15C1B0A0906320019435D48434646
:103FC0003CF05EFA220001232D325B4213705370E5
:103FD0009370D37022003132137053709370D3708A
:103FE000220000233532137053709370D3703A223D
:103FF000A35489E66368994200D07CE643463200C8
:10400000A1684C483CF03CFA01225242D31722608E
:1040100063600023A36063736DE67A00D219130115
:104020009B1A01225242E254E3185A709A70DA70D5
:104030001A715A719A71DA7100221A725A729A724E
:10404000DA725A734B461F6021E690228F230127B4
:10405000A1589846E35C7F42090232001943354873
:104060003B003CF00DFA2300873367555F709F706B
:10407000DF708B23E75423008B3342465F709F70C1
:10408000DF700023A35422008F3253709370D370DB
:104090009422A354F2E6642262230125A15AE35A32
:1040A0006D4209043200194322482B003CF0E8F924
:1040B00023005A331D805D8023005E331D805D80A8
:1040C0002300002262331A805A806723E254CCE630
:1040D00038220125A15C636B6D421B0A0906320080
:1040E000194314482B003CF0CBF923002D331D70ED
:1040F0005D709D70DD702300220031331D705D7096
:104100009D70DD7000233532137053709370D3703F
:104110003A22A354A0E643463200A16805483CF089
:10412000AFF901225242D317226063600023A360DB
:10413000637388E6C08B041010B5084C642200211C
:1041400020003AF02FFBFF233022A3541432A35453
:10415000143223722377A35410BDC046208E002052
:10416000042805D883001818024B8000C018704737
:104170000020FCE7208E002070B504280DD88300B5
:10418000094C1D18AD00665D8E4207D01B189B00C0
:10419000E154E41801236270637470BD65196D7891
:1041A0009542F3D1F9E7C046208E0020F0B5C6460F
:1041B00000B504281AD84A1ED3B2062B19D90023F9
:1041C0000024820098461118184B890059180F795D
:1041D00000260025A7421ED0121892009B184246C6
:1041E000DA7101221C715D719E719A7480BCB846AF
:1041F000F0BD0F4B5C5C0F4B51008A18D55C9B18CF
:104200005E789B78820098461118084B89005918EF
:104210000F79A742E0D14F79AF42DDD18F79B74214
:10422000DAD1C9794145D7D1E0E7C046208E0020D8
:10423000A4560510B0560510F0B5C64604000D0092
:1042400000B5042802D980BCB846F0BD00F060FE7D
:104250000028F8D16A1ED3B2062B17D900230020FC
:10426000984600260025A200134B11198900591801
:104270000F79874215D0121992009B184246DA71C5
:10428000012218715D719E719A74DCE70B4B51002D
:10429000585D0B4B8A18D55C9B185E789B789846C6
:1042A000E1E74F79AF42E6D18F79B742E3D1C979DF
:1042B0004145E0D1C7E7C046208E0020A456051036
:1042C000B0560510F0B504280FD885000B4C2E18F9
:1042D000B600A61977798F4208D02D18AD00641961
:1042E000E37101236171A271A374F0BDB7799742A4
:1042F000F3D1F6799E42F0D1F7E7C046208E002038
:10430000042807D88200044B121892009B18002240
:104310005A745A827047C046208E0020F0B5474636
:10432000CE4680B5274BC1B09846186000282CD0E7
:10433000254B002499461E0013E068466F79FEF76E
:10434000FDFC002801D06B461F7A37702B79BB42E9
:1043500001D86B793370013401360B2C0AD04346F7
:104360001868A3001D58002DE7D1013435700136BF
:104370000B2CF4D1FDF7BCFB0400431C05D04346D5
:104380001B688200D258002A04D041B0C0BCB94694
:10439000B046F0BDDB6A002BF7D068465D79FEF7CA
:1043A000CDFC002801D06B461D7A4B461D55434677
:1043B0001B68DB6A1A79AA42E7D84A465B7913552B
:1043C000E3E7C046BC7500201C500020014B18607C
:1043D0007047C04618930020154A03001068002853
:1043E0000BD0DAB20A2A09D9C26A002A1DD0137981
:1043F000002B1AD000231068C01870479A0012587A
:10440000002A0AD0117900290FD00A48C05C002385
:104410008842F0D234334343EDE7C06A0028ECD041
:104420000179002901D00200EFE70020E5E7C0464E
:10443000BC7500201C500020C2B2030000200A2AD4
:1044400001D8014AD05C70471C500020084B1B6803
:10445000002B0BD0C2B20A2A05D88000C258002A0D
:1044600001D010797047DA6A002AFAD10020F9E702
:10447000BC7500200D4A0300106800280CD0DAB289
:104480000A2A0AD9C36A002B0ED01A798A420BD99C
:104490001A6834234B43985870479B001B58002BD5
:1044A000F0D01A798A42F3D80020F5E7BC750020D5
:1044B000F0B52F4D07002B680C00C1B0002B09D0C0
:1044C000C6B20A2E08D88200D258002A33D01379F7
:1044D0008B4236D841B0F0BDDB6A002BFAD01B7995
:1044E0008B42F7D9234B1B68002B02D021003800E8
:1044F00098472000FDF72AFF1F4B1B68002B34D084
:1045000098470100200000F0B9FC0A2E1CD92A6847
:10451000002A28D0D36A002B25D01A79A24222D9AA
:104520001A6834236343995800291CD03A00134871
:104530003BF0A6FFCEE7DB6A002BCBD01B798B428A
:10454000C8D90F4BDC55CDE76A460D4B6846DB5D9D
:104550001372FEF747FC2A68002A04D0BB009B5860
:10456000002BDAD1D6E70749E0E70021CAE7C046C9
:10457000BC75002010CA0020189300209C8C0410E9
:104580001C5000205C8C0410244B10B51B680400E8
:10459000002B17D0C2B20A2A0DD9DB6A002B11D02A
:1045A0001979012000290DD039F05CFC2000C9B236
:1045B000FFF77EFF10BD8200D258002A20D011796B
:1045C000002923D1FEF7F4FF0128F3D9FFF71CF8E7
:1045D000FEF7E0FF0400FDF7B9FE114B1B68002B4E
:1045E00018D098470100200000F048FCFEF7F0FFCB
:1045F000002811D0010022000A483BF041FFD9E712
:10460000DB6A002BDED019790029DBD0064B185D60
:104610000130C9E70021E6E70449ECE7BC7500205A
:1046200018930020CC8C04101C500020C48C041063
:10463000244B10B51B68002B14D0C2B20A2A0AD929
:10464000DB6A002B0ED0197900290BD00139C9B2D1
:10465000FFF72EFF10BD8200D258002A20D011791A
:10466000002923D1FEF7A4FF0128F3D9FFF70EF8A4
:10467000FEF790FF0400FDF769FE134B1B68002B4B
:104680001BD098470100200000F0F8FBFEF7A0FFC8
:10469000002814D0010022000C483BF0F1FED9E7BD
:1046A000DB6A002BDED019790029DBD0084B1B5CBC
:1046B000002BCBD0013BD9B2CAE70021E3E7054983
:1046C000E9E7C046BC75002018930020CC8C04108C
:1046D0001C500020C48C0410F0B5DE4645465746F9
:1046E0004E46E0B583B00400FDF702FA0500431C16
:1046F0000ED0554B1B68002B00D09847802322001A
:104700005B001A401C420AD1504B1A605A601A8151
:1047100003B0F0BCBB46B246A946A046F0BD00F0CF
:10472000BBFC4A4E3379002B65D0737A3268002B7C
:1047300004D1FA23801ADB009842E9D380235B017D
:10474000234098465A1E9341DBB2019380239B017C
:104750002340802799465A1E9341FF01DBB2274030
:104760009A463B005A1E9341DBB29B4680231B02B4
:104770001C4023005A1E9341DBB20093FDF7EAFD73
:10478000002840D100F0B4FB00283CD1737A002B04
:1047900042D04346002B4DD07379002B4AD12800DC
:1047A000FFF7F2FE0123737273715346B371002F4A
:1047B0000DD0F379002B0AD1254B1B68002B06D0B6
:1047C000012040429847002801D0012373725B46C4
:1047D000F371002C0CD0337A002B09D11C4B1B68D1
:1047E000002B05D001209847002801D001237372C7
:1047F000009B33728CE701333371737A3060002B86
:1048000000D185E79AE7019B73715346B3715B460C
:10481000F371009B33727BE742465346002ABED1B8
:10482000019A7271002BC0D02800FFF701FF01230D
:104830007372BAE74B46002B03D00122B379534081
:10484000EEE7019B7371B0E718930020A4CB002022
:104850000CCA0020F0B557464E464546DE46E0B548
:1048600083B00C000CA906000EAD08780DA92D78B8
:104870001B0209781A430004A846C14B0FAD090674
:1048800002430A432F7810AD2D7892461A79A94633
:10489000119D002A03D05B7A002B00D008E128008C
:1048A000212200210B3039F07DFF53466B604346D7
:1048B0002B724B462C606F72AB72002E00D1F0E071
:1048C000F37D2100002B05D040229143434500D8C1
:1048D00011432960337E002B05D080229143BB42D7
:1048E00000D8114329603369002B30D0327D9446C3
:1048F000002A2CD00020370011950600119865463B
:1049000000228446B84604E00132D2B20C3395420C
:1049100016D0270018680740B842F5D15F7A002FFB
:1049200001D0A042F0D15F68013239436746396057
:104930001F7AD2B27F42384006430C339542E8D109
:104940004346B0461E004346654699432960B26817
:10495000002A00D1A5E0337B9C46002B00D1A0E0CB
:10496000002001908748A246002364460027AC46F9
:104970008146B0460D001068054209D0516800918B
:10498000117A002900D096E00199009E31430191EF
:104990000133DBB207430C329C42ECD12900019B6E
:1049A0006546B9431943464632232960F35C5446B1
:1049B000002B00D0BDE02823F05CF76900280FD061
:1049C0000023726A04E00133DBB20C32834207D069
:1049D00011680C42F7D0137A5768002B00D098E08A
:1049E000336A98463023F05C002810D00023F26A26
:1049F00004E00133DBB20C32834208D011680C4270
:104A0000F7D053689846137A002B00D07DE0FE2142
:104A1000381C890539F026FE002811D1EB7A002BCD
:104A20000BD12879803800B239F02AFE391C39F0D0
:104A3000EAFD39F047FE803828712B7B002B57D0D8
:104A4000FE214046890539F00DFE002811D16B7B0F
:104A5000002B0BD1A879803800B239F011FE414605
:104A600039F0D1FD39F02EFE8038A871AB7B002BD8
:104A700031D0EB7B2A7C002B06D1737D052B03D82C
:104A800041499B00CB589F46287A002A1CD0697A5E
:104A9000002869D0002904D12A68120601D5FF2315
:104AA0006B7203B0F0BCBB46B246A946A046F0BD4F
:104AB000364B1C40F3E6567AB3460C2900D963E71F
:104AC0004E46890071588F46B37D052BDFD8304A9A
:104AD0009B00D3589F46E879803800B239F0D0FD6A
:104AE000414639F090FD39F0EDFD8038E871C0E7BE
:104AF0006879803800B239F0C3FD391C39F083FD84
:104B000039F0E0FD803868719AE72B688B432B60A1
:104B10007DE72B688B432B6062E700232B722B68A9
:104B2000002A24D01A00697A5206B3D5FF232B72CB
:104B3000B0E7022B00D12EE1032B00D1E9E0012BDD
:104B400010D1C02308009B010A001840984200D1F0
:104B500047E1C0231B02194008001100984201D10F
:104B60000C4B1940296026E72B681A00DCE7B27D60
:104B7000052A00D938E1084992008A589746C0466C
:104B8000A4CB0020E0560510C8560510FF0EFFFF0D
:104B900014570510FF3FFFFF2C57051000232A680C
:104BA0006B72002800D078E70021BDE7FF21664640
:104BB000F171FE39B173E7E6FF2166463171FE39C6
:104BC000F172E1E600216646717101313173DBE675
:104BD000FF2166467171FE393173D5E600216646C4
:104BE000B17101317173CFE6FF2166463172FE3932
:104BF000F173C9E661465E464E7201216646317424
:104C0000C2E6FF2166467172FE393174BCE6614628
:104C10005E460E7201216646F173B5E600216646D6
:104C200031710131F172AFE6FF216646B171FE3993
:104C30007173A9E600216646F1710131B173A3E6F3
:104C4000002340212B722B688B432B6068E72B6875
:104C5000590600D418E7FF212972002A51D1B27DEC
:104C6000052A4ED8714992008A589746287A737E51
:104C7000984201D918002B7240212B688B432B607E
:104C800003E72B68B27E697A914201D911006A72FA
:104C9000802293432B60FBE600232A686B728033EB
:104CA0009A432A60002800D0FBE67DE72A681306B5
:104CB00000D4ECE6FF23FF216B72002800D0F0E661
:104CC00032E7002200216A721A002DE71A00190645
:104CD00000D489E0FF23FF216B7225E700226A726E
:104CE000803293431A0000212B601DE70020C9E7A2
:104CF00000226A721A00D0E6FF20C3E71B0600D527
:104D0000CDE6697AC6E600226A72803293432B6050
:104D1000C7E680230A0080205B011A40800190468C
:104D20000840194248D0424B00284FD09F78DA788B
:104D3000002F72D101371F70002A68D03D4A0A4007
:104D4000914680270A00FF013A40944680221202D1
:104D50000A409246394229D0002A3ED01F7959791B
:104D6000002F4BD101375F70002940D04A463249AD
:104D70000A40110047467A1E97419F70471EB8416E
:104D8000D87060465246471EB8411871501E824185
:104D900029605A710FE6C02308009B010A001840E1
:104DA000984200D0D5E6234A0A40D2E6002A11D024
:104DB000022159704946DDE71D4B002803D002222D
:104DC00089461A70BDE789461870BAE701228946FC
:104DD0001A70B6E749465A70CCE701215970494626
:104DE000C8E7164A0A40B4E61A00697A9CE602212E
:104DF00059704A4612490A401100BBE70029F6D013
:104E000059780129B2D00229F3D04946B2E70222EB
:104E10001A700C4A0A40914693E7002AF7D01A7894
:104E2000012A8BD0022AF4D089468AE7445705101C
:104E3000FC040120FFDFFFFFFF7FFFFFFFCFFFFF2D
:104E4000FFBFFFFFFFEFFFFF0023064A1370064A74
:104E50001370064A1370064A1370064A1370064A06
:104E6000137070471A340120053401201D340120CD
:104E70001F3401200F3401201034012070B5144B71
:104E80001A78002A04D1134D2A78D1B2002A00D012
:104E900070BD0126104A1070104A0130C4B2117062
:104EA0001C700F4B1E7000F007F90E4BFF22FF2104
:104EB00018600020FFF760F90B4B2C701E7000F09B
:104EC000FBF80A4B210018600020FFF76FF9DFE7BD
:104ED0001D3401200F3401201A3401200534012033
:104EE0001F34012038FE0020103401202CC7002080
:104EF000054B01201B78002B04D1044B1878431E6E
:104F00009841C0B27047C0461D3401200F340120C3
:104F1000084B02001B78002B04D1074B00201B78A4
:104F2000002B05D0054B1878801A43425841C0B277
:104F30007047C0461D3401200F3401200534012084
:104F40000122044B1A700022034B1A70034B1A7093
:104F50007047C0461E3401201D3401201F3401203B
:104F6000074B1B78002B00D17047064B1B78002B9A
:104F700003D0054B187840B2F6E701204042F3E732
:104F80000F340120103401201A34012070B500F0D4
:104F900093F8364B04001A78002A03D0344A12786A
:104FA000002A25D0334B1A78002A0AD032483349D8
:104FB00002680D78A21A002D04D0314DAA4237D8CC
:104FC0000B7870BD0D78002DFBD12E4DAA42F8D97B
:104FD0001B78002BF5D001230B702B4B0460187845
:104FE0002A4BC0B219780131C9B2FFF7DFF8E8E700
:104FF000274D2968411A27480678002E13D10278D8
:10500000002ACFD11F4A9142CCD91B78002BC9D09E
:10501000012303701C4BFF221878FF21C0B22C60C3
:10502000FFF7AAF8BEE7164EB14211D80378B9E7E8
:1050300000220A701A780460013AD2B21A70124B38
:105040000022187800210023C0B2FFF73BF9B8E72F
:1050500002701A780021013AD2B21A700A4B00226B
:1050600018782C60C0B2FFF787F89BE71D34012049
:105070001E3401200F3401202CC7002010340120E1
:105080009F8601003F0D0300053401201A340120E2
:1050900038FE00201F34012010B538F077FA0029BF
:1050A00005D0FA220023920038F042FF10BDFA2109
:1050B000890038F0FFFEF9E7014B986A7047C04657
:1050C000004005400021642010B538F083FCFEE765
:1050D00010B508483BF04CF900F050F800210020D2
:1050E0003FF0E4FF04480AF093F804483BF040F92D
:1050F00010BDC046048D0410C4630510248D041037
:105100000120002110B540423DF064FE08F0A6FAEF
:1051100000F038F8074B1B78002B00D110BD09F0C8
:10512000F9FF054B1B68002BF8D09B68002BF5D0CE
:105130009847F3E7E333012008700020014B187013
:105140007047C046E333012010B5034B010018003F
:105150003BF096F910BDC046448D041010B5040014
:10516000210005483BF08CF9012120004942FEF75F
:1051700065FDFEF7D3FA10BD6C8D041010B500F07C
:105180008DFA10BDF0B5DE4657464E464546E0B5B1
:1051900089B005F06DFDFEF7CBFA01239946584B17
:1051A000CB460293574B584F9A46019003975B4664
:1051B000DBB20093554B00249846039D0426210042
:1051C0005846FEF739FC2B79AE57142B34D843469A
:1051D000F340DB0730D543B29946030640D500279C
:1051E0004846FFF7BDFE53461B688146002B67D03B
:1051F0001B6B002B63D0984784464B4605AA05934A
:10520000002F5AD0387979783F780B1CB94200D2F8
:105210003B1C3F02DBB209043B4300060B43034344
:10522000069363461372019BB6005372029B00986B
:10523000F358E1B21B69984701341635082CBDD1EB
:10524000039BB433039301239C46E3445B46062B44
:10525000ADD109B0F0BCBB46B246A946A046F0BDF0
:10526000C0B2FEF77DFF071EB9D000790028B7D085
:10527000274B5A78824231D09A78824231D0DA78FC
:10528000824231D01A79824231D05A79824231D069
:105290009A79824231D0DB798342A1D106239946A3
:1052A000184B1B68002B0DD01B6B002B10D09847A0
:1052B0004B46844605AA0593A4E70023B0E70023E4
:1052C0009C469AE74B460593002305AA9C469AE71D
:1052D0004B460593002305AA9C4693E70023994675
:1052E000DEE701239946DBE702239946D8E703234B
:1052F0009946D5E704239946D2E705239946CFE797
:105300004C770020285000205878002007381600DD
:10531000A4560510F0B5DE464E4657464546E0B564
:1053200085B09A466B469E1C884691466946320077
:1053300007003CF02BFF6B46328819882C483BF065
:105340009FF82C4B00249B461D002B68002B06D099
:105350006A46318810885B689847002828D1013454
:105360000435142CF1D101AC2200234B23CB23C2F2
:10537000414638003FF09CFA8300050019591F4848
:105380003BF07EF8012D27D0022D20D05B46DB6C50
:105390004A469C68414653463800A047002820D022
:1053A0005B46DB6C164819683BF06AF8132007E08F
:1053B0005A46A300D358124819683BF061F860B20E
:1053C00005B0F0BCBB46B246A946A046F0BD0D48AC
:1053D0003AF0CEFF1520F3E70B483AF0C9FF14204E
:1053E000EEE70A483AF0C4FF01204042E8E7C04631
:1053F000A08D04104C77002074570510CC8D04103C
:10540000BC8D0410008E0410EC8D0410108E04105E
:10541000F8B5CE46474605000E0080B59846170001
:105420002A480A0029003BF02BF843463A00310095
:105430002800FFF76FFF1621B42371436B4304006C
:10544000C8188146224A914448460471012C31D043
:1054500014DD0D2C33DC0B2C06DD1E4BA400E358B1
:10546000310028005B699847310028003FF0B0FA0E
:1054700000281BD0C0BCB946B046F8BD002CECD00B
:105480000134F1D10631C818801843463A0005218D
:105490003FF092FD4B46010058710F483AF0F0FF83
:1054A000310028003FF094FA0028E3D10B483AF08D
:1054B0005FFFDFE73100280005F0CEFAD4E72300D4
:1054C000113BDBB2012BC8D9CEE7C046208E0410B9
:1054D000A47700204C770020548E04106C8E0410AA
:1054E000F8B504000A000D001B4821003AF0C8FF7F
:1054F0001623B42204276B436243184E9B18F318FB
:10550000DF571B79142B10D80123BB40144A1342D8
:1055100014D1144A134208D0134BBA00D3582900AF
:1055200020009B699847012F10D01623B4226B43AB
:1055300062439B18F618FF233371F8BD0A4BBF0076
:10554000FB58290020009B699847EEE729002000BE
:1055500005F098FAE9E7C046988E0410A477002079
:1055600000301400070008004C770020F8B55746BB
:105570004E464546DE46E0B51626B4279A46314BE0
:105580004E439B464743F3195B4498461B790400FE
:105590005BB20D0091465A1C18D02B4A9B009B58B9
:1055A000DE684A46534629002000B0472900200003
:1055B0003FF00EFA002805D0F0BCBB46B246A94623
:1055C000A046F8BD21483AF0D3FEF5E73FF070F968
:1055D000012827D0022828D0434606365A79F619E2
:1055E0005E44012A24D04B461F78002A26D0310081
:1055F000002304E00133DBB204319A421ED908785B
:105600000E00B842F6D101239C465346013B9BB2A3
:105610009A46E1447388012BC8D17378022B04D0D9
:10562000062BC3D1084B1B6DBAE7074B5B6DB7E781
:105630003378002BEED04B461F78D8E704483AF079
:1056400097FEB3E7A47700204C7700206C8E0410FF
:10565000D08E0410030010B5441A0120944203DCDC
:10566000C91A8A4201DAC0B210BD0020FBE7C04669
:1056700010B50478002C01D101340470087800289A
:1056800001D1013008701178002901D10131117068
:105690001A78002A01D101321A7010BD164B174A30
:1056A0001A60174A5A60174A9A60174ADA60174A0E
:1056B0001A61174A5A61174A9A61174ADA61174AFA
:1056C0001A62174A5A62174A9A62174ADA62174AE6
:1056D0001A63174A5A63174A9A63174ADA63174AD2
:1056E0001A64174A5A64174A9A64174ADA64174ABE
:1056F0001A65174A5A6570474C770020E00B002066
:10570000000C0020200C0020400C0020200B00206A
:10571000400B0020600B0020600C0020800C00205B
:10572000A00C0020C00C0020800B0020A00B00204B
:10573000C00B0020E00C0020000D0020200D0020F8
:10574000400D0020600D0020000B0020C00A00204A
:10575000E00A0020C000044B40188000C01800235D
:10576000038083707047C04650BD0020F8B5040028
:10577000080016001D000F0038F05EFE00228F4B5F
:1057800038F0DDFD00228E4B38F0F3FD02000B00F7
:1057900000208B4938F0C9FD38F08AFEC0B2002CD9
:1057A00001D0002F05D180230130C0B233702870A2
:1057B000F8BD0F2C0AD8042C74D0082C00D182E03C
:1057C000022CF0D1C0438023C0B2EFE7FF2C0AD8EF
:1057D000482C42D8132CE6D9143C342CE3D8794B0E
:1057E000A4001B599F4680235B019C421ED380234B
:1057F0005B029C42D7D2744B9C4213D067D8734B48
:105800009C4247D000D993E0714B9C420AD000D90A
:10581000C3E0704B9C424FD06F4B9C4202D06F4B09
:105820009C42C0D10B30C0B20300BFE76C4B9C421E
:10583000F8D01FD8FF3BFF3B9C422BD056D8CC3B27
:105840009C42EFD032D8203B9C4235D01A339C4248
:10585000E8D01E3B9C42E5D0A5E7842C33D0A2D8EB
:10586000812C29D0822C9ED10B235B42181AC0B206
:1058700003009BE75B4B9C421ED043D88523DB0093
:105880009C4207D066D8103B9C42CBD0564B9C42E2
:1058900000D088E70B22030052420B33101ADBB210
:1058A000C0B283E70130C3B280207FE70223833C8C
:1058B000FF3C9C4300D076E70B235B421B1A0B3066
:1058C000DBB2C0B272E7C3438020DBB26EE7474B66
:1058D0009C42F1D021D8464B9C42DBD054D8454B5A
:1058E0009C429FD0444B9C42D4D05CE792239B00C7
:1058F0009C42CFD036D8303B9C42B5D03F4B9C42E7
:10590000C8D050E73E4B9C42AED01CD83D4B9C4289
:10591000D2D03D4B9C42A7D045E73C4B9C42A3D004
:1059200042D83B4B9C42C7D03A4B9C429CD03AE772
:10593000394B9C42AED01ED8384B9C4294D0384B49
:105940009C42A7D02FE7374B9C42B5D0364B9C42A8
:105950008AD028E7354B9C4200D163E7344B9C4208
:1059600098D020E7334B9C4200D17DE703339C4223
:1059700000D179E717E7304B9C4200D174E72F4BF9
:105980009C4200D170E70EE72D4B9C4200D149E7C5
:105990002C4B9C4200D17DE705E72B4B9C428BD0E2
:1059A0002A4B9C4288D0FEE6294B9C4200D183E7DB
:1059B000284B9C4200D157E7F5E6C046000059400D
:1059C00000C05F40805705102841000048210000BA
:1059D0008214000084120000281400004812000005
:1059E00012040000120800002104000024810000BD
:1059F0008142000082410000184200004102000084
:105A00002408000014080000210800004182000062
:105A100042810000148200008124000084210000E3
:105A20001824000041080000420800008104000022
:105A300082040000810200001428000041280000B8
:105A400012480000214800002418000042180000FD
:105A50001284000021840000F0B557464E46DE4611
:105A600045468023E0B5ADB08A4614A9CB710B72D0
:105A70004B728B72222113781127194089464421D9
:105A8000194004900891D4781179240209040C4338
:105A900091781F400C43990700D46CE1E121240266
:105AA0000C43002F02D0E02124020C430899002966
:105AB00002D0E22124020C43190700D453E1E3236E
:105AC00024021C430499CC4BC900514489005B1843
:105AD0005978002901D1013159700023911C984651
